{"abi":[{"type":"constructor","inputs":[{"name":"_asset","type":"address","internalType":"address"},{"name":"_annualRateBps","type":"uint256","internalType":"uint256"}],"stateMutability":"nonpayable"},{"type":"function","name":"accrueInterest","inputs":[],"outputs":[],"stateMutability":"nonpayable"},{"type":"function","name":"accrueWithTime","inputs":[{"name":"dt","type":"uint256","internalType":"uint256"}],"outputs":[],"stateMutability":"nonpayable"},{"type":"function","name":"annualRateBps","inputs":[],"outputs":[{"name":"","type":"uint256","internalType":"uint256"}],"stateMutability":"view"},{"type":"function","name":"asset","inputs":[],"outputs":[{"name":"","type":"address","internalType":"address"}],"stateMutability":"view"},{"type":"function","name":"balanceOf","inputs":[{"name":"","type":"address","internalType":"address"}],"outputs":[{"name":"","type":"uint256","internalType":"uint256"}],"stateMutability":"view"},{"type":"function","name":"convertToAssets","inputs":[{"name":"shares","type":"uint256","internalType":"uint256"}],"outputs":[{"name":"","type":"uint256","internalType":"uint256"}],"stateMutability":"view"},{"type":"function","name":"convertToShares","inputs":[{"name":"assets","type":"uint256","internalType":"uint256"}],"outputs":[{"name":"","type":"uint256","internalType":"uint256"}],"stateMutability":"view"},{"type":"function","name":"deposit","inputs":[{"name":"assets","type":"uint256","internalType":"uint256"},{"name":"receiver","type":"address","internalType":"address"}],"outputs":[{"name":"sharesMinted","type":"uint256","internalType":"uint256"}],"stateMutability":"nonpayable"},{"type":"function","name":"exchangeRate","inputs":[],"outputs":[{"name":"","type":"uint256","internalType":"uint256"}],"stateMutability":"view"},{"type":"function","name":"lastAccrual","inputs":[],"outputs":[{"name":"","type":"uint256","internalType":"uint256"}],"stateMutability":"view"},{"type":"function","name":"manager","inputs":[],"outputs":[{"name":"","type":"address","internalType":"address"}],"stateMutability":"view"},{"type":"function","name":"setAnnualRateBps","inputs":[{"name":"newRateBps","type":"uint256","internalType":"uint256"}],"outputs":[],"stateMutability":"nonpayable"},{"type":"function","name":"setManager","inputs":[{"name":"newManager","type":"address","internalType":"address"}],"outputs":[],"stateMutability":"nonpayable"},{"type":"function","name":"totalAssets","inputs":[],"outputs":[{"name":"","type":"uint256","internalType":"uint256"}],"stateMutability":"view"},{"type":"function","name":"totalSupply","inputs":[],"outputs":[{"name":"","type":"uint256","internalType":"uint256"}],"stateMutability":"view"},{"type":"function","name":"withdraw","inputs":[{"name":"assets","type":"uint256","internalType":"uint256"},{"name":"receiver","type":"address","internalType":"address"},{"name":"owner","type":"address","internalType":"address"}],"outputs":[{"name":"sharesBurned","type":"uint256","internalType":"uint256"}],"stateMutability":"nonpayable"},{"type":"event","name":"Accrued","inputs":[{"name":"newExchangeRate","type":"uint256","indexed":false,"internalType":"uint256"}],"anonymous":false},{"type":"event","name":"AnnualRateUpdated","inputs":[{"name":"newRateBps","type":"uint256","indexed":false,"internalType":"uint256"}],"anonymous":false},{"type":"event","name":"Deposit","inputs":[{"name":"caller","type":"address","indexed":true,"internalType":"address"},{"name":"receiver","type":"address","indexed":true,"internalType":"address"},{"name":"assets","type":"uint256","indexed":false,"internalType":"uint256"},{"name":"shares","type":"uint256","indexed":false,"internalType":"uint256"}],"anonymous":false},{"type":"event","name":"ManagerUpdated","inputs":[{"name":"newManager","type":"address","indexed":false,"internalType":"address"}],"anonymous":false},{"type":"event","name":"Withdraw","inputs":[{"name":"caller","type":"address","indexed":true,"internalType":"address"},{"name":"receiver","type":"address","indexed":true,"internalType":"address"},{"name":"owner","type":"address","indexed":true,"internalType":"address"},{"name":"assets","type":"uint256","indexed":false,"internalType":"uint256"},{"name":"shares","type":"uint256","indexed":false,"internalType":"uint256"}],"anonymous":false}],"bytecode":{"object":"0x608060405234801561001057600080fd5b50604051610a91380380610a9183398101604081905261002f916100af565b6001600160a01b0382166100765760405162461bcd60e51b815260206004820152600a60248201526941535345545f5a45524f60b01b604482015260640160405180910390fd5b600080546001600160a01b0319166001600160a01b03939093169290921790915560045542600555670de0b6b3a76400006006556100e9565b600080604083850312156100c257600080fd5b82516001600160a01b03811681146100d957600080fd5b6020939093015192949293505050565b610999806100f86000396000f3fe608060405234801561001057600080fd5b50600436106101005760003560e01c80637b3baab411610097578063b460af9411610066578063b460af94146101e4578063c6e6f592146101f7578063d0ebdbe71461020a578063f067e19d1461021d57600080fd5b80637b3baab4146101b5578063915231e9146101be578063987f23dd146101d3578063a6afed95146101dc57600080fd5b80633ba0b9a9116100d35780633ba0b9a914610167578063481c6a751461016f5780636e553f651461018257806370a082311461019557600080fd5b806301e1d1141461010557806307a2d13a1461012057806318160ddd1461013357806338d52e0f1461013c575b600080fd5b61010d610230565b6040519081526020015b60405180910390f35b61010d61012e36600461080d565b61025a565b61010d60015481565b60005461014f906001600160a01b031681565b6040516001600160a01b039091168152602001610117565b60065461010d565b60075461014f906001600160a01b031681565b61010d610190366004610842565b610293565b61010d6101a336600461086e565b60026020526000908152604090205481565b61010d60055481565b6101d16101cc36600461080d565b610455565b005b61010d60045481565b6101d1610491565b61010d6101f2366004610890565b61049b565b61010d61020536600461080d565b610690565b6101d161021836600461086e565b6106b7565b6101d161022b36600461080d565b610705565b6000670de0b6b3a764000060065460015461024b91906108e2565b61025591906108f9565b905090565b60008160000361026c57506000919050565b670de0b6b3a76400006006548361028391906108e2565b61028d91906108f9565b92915050565b60008083116102d75760405162461bcd60e51b815260206004820152600b60248201526a5a45524f5f41535345545360a81b60448201526064015b60405180910390fd5b6102df610735565b6102e883610690565b9050600081116103285760405162461bcd60e51b815260206004820152600b60248201526a5a45524f5f53484152455360a81b60448201526064016102ce565b6000546040516323b872dd60e01b8152336004820152306024820152604481018590526001600160a01b03909116906323b872dd906064016020604051808303816000875af115801561037f573d6000803e3d6000fd5b505050506040513d601f19601f820116820180604052508101906103a3919061091b565b6103ac57600080fd5b80600160008282546103be919061093d565b90915550506001600160a01b038216600090815260026020526040812080548392906103eb90849061093d565b925050819055508260036000828254610404919061093d565b909155505060408051848152602081018390526001600160a01b0384169133917fdcbc1c05240f31ff3ad067ef1ee35ce4997762752e3a095284754544f4c709d7910160405180910390a392915050565b60048190556040518181527f89c2ce6623e541436db69e615af4bd1df6866d974a60da619ce0b4e874afc77e906020015b60405180910390a150565b610499610735565b565b60008084116104da5760405162461bcd60e51b815260206004820152600b60248201526a5a45524f5f41535345545360a81b60448201526064016102ce565b6104e2610735565b6104eb84610690565b6001600160a01b03831660009081526002602052604090205490915081111561054c5760405162461bcd60e51b8152602060048201526013602482015272494e53554646494349454e545f53484152455360681b60448201526064016102ce565b6001600160a01b03821660009081526002602052604081208054839290610574908490610950565b92505081905550806001600082825461058d9190610950565b909155505060035484116105b85783600360008282546105ad9190610950565b909155506105be9050565b60006003555b60005460405163a9059cbb60e01b81526001600160a01b038581166004830152602482018790529091169063a9059cbb906044016020604051808303816000875af1158015610611573d6000803e3d6000fd5b505050506040513d601f19601f82011682018060405250810190610635919061091b565b61063e57600080fd5b60408051858152602081018390526001600160a01b03808516929086169133917ffbde797d201c681b91056529119e0b02407c7bb96a4a2c75c01fc9667232c8db910160405180910390a49392505050565b6000816000036106a257506000919050565b600654610283670de0b6b3a7640000846108e2565b600780546001600160a01b0319166001600160a01b0383169081179091556040519081527f2c1c11af44aa5608f1dca38c00275c30ea091e02417d36e70e9a1538689c433d90602001610486565b801561072a5742811061071c57600060055561072a565b6107268142610950565b6005555b610732610735565b50565b6000600554426107459190610950565b9050806000036107525750565b426005556004546301e13380906000908290670de0b6b3a7640000906107799086906108e2565b61078391906108e2565b61078d91906108f9565b90506000670de0b6b3a7640000612710836006546107ab91906108e2565b6107b591906108f9565b6107bf91906108f9565b9050806006546107cf919061093d565b60068190556040519081527ff3486c8be7415104f077b000d812e60c482b6824642b7673b3f73d6faeca29a69060200160405180910390a150505050565b60006020828403121561081f57600080fd5b5035919050565b80356001600160a01b038116811461083d57600080fd5b919050565b6000806040838503121561085557600080fd5b8235915061086560208401610826565b90509250929050565b60006020828403121561088057600080fd5b61088982610826565b9392505050565b6000806000606084860312156108a557600080fd5b833592506108b560208501610826565b91506108c360408501610826565b90509250925092565b634e487b7160e01b600052601160045260246000fd5b808202811582820484141761028d5761028d6108cc565b60008261091657634e487b7160e01b600052601260045260246000fd5b500490565b60006020828403121561092d57600080fd5b8151801515811461088957600080fd5b8082018082111561028d5761028d6108cc565b8181038181111561028d5761028d6108cc56fea2646970667358221220d3b366203cf2b6dc8d2fccaaf0e25e0844b0b662e655969283bfa0b26c84692464736f6c63430008180033","linkReferences":{}},"methodIdentifiers":{"accrueInterest()":"a6afed95","accrueWithTime(uint256)":"f067e19d","annualRateBps()":"987f23dd","asset()":"38d52e0f","balanceOf(address)":"70a08231","convertToAssets(uint256)":"07a2d13a","convertToShares(uint256)":"c6e6f592","deposit(uint256,address)":"6e553f65","exchangeRate()":"3ba0b9a9","lastAccrual()":"7b3baab4","manager()":"481c6a75","setAnnualRateBps(uint256)":"915231e9","setManager(address)":"d0ebdbe7","totalAssets()":"01e1d114","totalSupply()":"18160ddd","withdraw(uint256,address,address)":"b460af94"},"id":2}