{"abi":[{"type":"constructor","inputs":[{"name":"_asset","type":"address","internalType":"address"},{"name":"_annualRateBps","type":"uint256","internalType":"uint256"}],"stateMutability":"nonpayable"},{"type":"function","name":"accrueInterest","inputs":[],"outputs":[],"stateMutability":"nonpayable"},{"type":"function","name":"accrueWithTime","inputs":[{"name":"dt","type":"uint256","internalType":"uint256"}],"outputs":[],"stateMutability":"nonpayable"},{"type":"function","name":"annualRateBps","inputs":[],"outputs":[{"name":"","type":"uint256","internalType":"uint256"}],"stateMutability":"view"},{"type":"function","name":"asset","inputs":[],"outputs":[{"name":"","type":"address","internalType":"address"}],"stateMutability":"view"},{"type":"function","name":"balanceOf","inputs":[{"name":"","type":"address","internalType":"address"}],"outputs":[{"name":"","type":"uint256","internalType":"uint256"}],"stateMutability":"view"},{"type":"function","name":"convertToAssets","inputs":[{"name":"shares","type":"uint256","internalType":"uint256"}],"outputs":[{"name":"","type":"uint256","internalType":"uint256"}],"stateMutability":"view"},{"type":"function","name":"convertToShares","inputs":[{"name":"assets","type":"uint256","internalType":"uint256"}],"outputs":[{"name":"","type":"uint256","internalType":"uint256"}],"stateMutability":"view"},{"type":"function","name":"deposit","inputs":[{"name":"assets","type":"uint256","internalType":"uint256"},{"name":"receiver","type":"address","internalType":"address"}],"outputs":[{"name":"sharesMinted","type":"uint256","internalType":"uint256"}],"stateMutability":"nonpayable"},{"type":"function","name":"exchangeRate","inputs":[],"outputs":[{"name":"","type":"uint256","internalType":"uint256"}],"stateMutability":"view"},{"type":"function","name":"lastAccrual","inputs":[],"outputs":[{"name":"","type":"uint256","internalType":"uint256"}],"stateMutability":"view"},{"type":"function","name":"manager","inputs":[],"outputs":[{"name":"","type":"address","internalType":"address"}],"stateMutability":"view"},{"type":"function","name":"setAnnualRateBps","inputs":[{"name":"newRateBps","type":"uint256","internalType":"uint256"}],"outputs":[],"stateMutability":"nonpayable"},{"type":"function","name":"setManager","inputs":[{"name":"newManager","type":"address","internalType":"address"}],"outputs":[],"stateMutability":"nonpayable"},{"type":"function","name":"totalAssets","inputs":[],"outputs":[{"name":"","type":"uint256","internalType":"uint256"}],"stateMutability":"view"},{"type":"function","name":"totalSupply","inputs":[],"outputs":[{"name":"","type":"uint256","internalType":"uint256"}],"stateMutability":"view"},{"type":"function","name":"withdraw","inputs":[{"name":"assets","type":"uint256","internalType":"uint256"},{"name":"receiver","type":"address","internalType":"address"},{"name":"owner","type":"address","internalType":"address"}],"outputs":[{"name":"sharesBurned","type":"uint256","internalType":"uint256"}],"stateMutability":"nonpayable"},{"type":"event","name":"Accrued","inputs":[{"name":"newExchangeRate","type":"uint256","indexed":false,"internalType":"uint256"}],"anonymous":false},{"type":"event","name":"AnnualRateUpdated","inputs":[{"name":"newRateBps","type":"uint256","indexed":false,"internalType":"uint256"}],"anonymous":false},{"type":"event","name":"Deposit","inputs":[{"name":"caller","type":"address","indexed":true,"internalType":"address"},{"name":"receiver","type":"address","indexed":true,"internalType":"address"},{"name":"assets","type":"uint256","indexed":false,"internalType":"uint256"},{"name":"shares","type":"uint256","indexed":false,"internalType":"uint256"}],"anonymous":false},{"type":"event","name":"ManagerUpdated","inputs":[{"name":"newManager","type":"address","indexed":false,"internalType":"address"}],"anonymous":false},{"type":"event","name":"Withdraw","inputs":[{"name":"caller","type":"address","indexed":true,"internalType":"address"},{"name":"receiver","type":"address","indexed":true,"internalType":"address"},{"name":"owner","type":"address","indexed":true,"internalType":"address"},{"name":"assets","type":"uint256","indexed":false,"internalType":"uint256"},{"name":"shares","type":"uint256","indexed":false,"internalType":"uint256"}],"anonymous":false}],"bytecode":{"object":"0x608060405234801561000f575f80fd5b506040516111ab3803806111ab83398181016040528101906100319190610193565b5f73ffffffffffffffffffffffffffffffffffffffff168273ffffffffffffffffffffffffffffffffffffffff160361009f576040517f08c379a00000000000000000000000000000000000000000000000000000000081526004016100969061022b565b60405180910390fd5b815f806101000a81548173ffffffffffffffffffffffffffffffffffffffff021916908373ffffffffffffffffffffffffffffffffffffffff1602179055508060048190555042600581905550670de0b6b3a76400006006819055505050610249565b5f80fd5b5f73ffffffffffffffffffffffffffffffffffffffff82169050919050565b5f61012f82610106565b9050919050565b61013f81610125565b8114610149575f80fd5b50565b5f8151905061015a81610136565b92915050565b5f819050919050565b61017281610160565b811461017c575f80fd5b50565b5f8151905061018d81610169565b92915050565b5f80604083850312156101a9576101a8610102565b5b5f6101b68582860161014c565b92505060206101c78582860161017f565b9150509250929050565b5f82825260208201905092915050565b7f41535345545f5a45524f000000000000000000000000000000000000000000005f82015250565b5f610215600a836101d1565b9150610220826101e1565b602082019050919050565b5f6020820190508181035f83015261024281610209565b9050919050565b610f55806102565f395ff3fe608060405234801561000f575f80fd5b50600436106100fe575f3560e01c80637b3baab411610095578063b460af9411610064578063b460af941461028a578063c6e6f592146102ba578063d0ebdbe7146102ea578063f067e19d14610306576100fe565b80637b3baab414610228578063915231e914610246578063987f23dd14610262578063a6afed9514610280576100fe565b80633ba0b9a9116100d15780633ba0b9a91461018c578063481c6a75146101aa5780636e553f65146101c857806370a08231146101f8576100fe565b806301e1d1141461010257806307a2d13a1461012057806318160ddd1461015057806338d52e0f1461016e575b5f80fd5b61010a610322565b6040516101179190610a4b565b60405180910390f35b61013a60048036038101906101359190610a92565b61034b565b6040516101479190610a4b565b60405180910390f35b610158610384565b6040516101659190610a4b565b60405180910390f35b61017661038a565b6040516101839190610afc565b60405180910390f35b6101946103ad565b6040516101a19190610a4b565b60405180910390f35b6101b26103b6565b6040516101bf9190610afc565b60405180910390f35b6101e260048036038101906101dd9190610b3f565b6103db565b6040516101ef9190610a4b565b60405180910390f35b610212600480360381019061020d9190610b7d565b610563565b60405161021f9190610a4b565b60405180910390f35b610230610578565b60405161023d9190610a4b565b60405180910390f35b610260600480360381019061025b9190610a92565b61057e565b005b61026a6105bf565b6040516102779190610a4b565b60405180910390f35b6102886105c5565b005b6102a4600480360381019061029f9190610ba8565b6105cf565b6040516102b19190610a4b565b60405180910390f35b6102d460048036038101906102cf9190610a92565b610865565b6040516102e19190610a4b565b60405180910390f35b61030460048036038101906102ff9190610b7d565b61089e565b005b610320600480360381019061031b9190610a92565b610918565b005b5f670de0b6b3a764000060065460015461033c9190610c25565b6103469190610c93565b905090565b5f80820361035b575f905061037f565b670de0b6b3a7640000600654836103729190610c25565b61037c9190610c93565b90505b919050565b60015481565b5f8054906101000a900473ffffffffffffffffffffffffffffffffffffffff1681565b5f600654905090565b60075f9054906101000a900473ffffffffffffffffffffffffffffffffffffffff1681565b5f80831161041e576040517f08c379a000000000000000000000000000000000000000000000000000000000815260040161041590610d1d565b60405180910390fd5b610426610952565b61042f83610865565b90505f8111610473576040517f08c379a000000000000000000000000000000000000000000000000000000000815260040161046a90610d85565b60405180910390fd5b8060015f8282546104849190610da3565b925050819055508060025f8473ffffffffffffffffffffffffffffffffffffffff1673ffffffffffffffffffffffffffffffffffffffff1681526020019081526020015f205f8282546104d79190610da3565b925050819055508260035f8282546104ef9190610da3565b925050819055508173ffffffffffffffffffffffffffffffffffffffff163373ffffffffffffffffffffffffffffffffffffffff167fdcbc1c05240f31ff3ad067ef1ee35ce4997762752e3a095284754544f4c709d78584604051610555929190610dd6565b60405180910390a392915050565b6002602052805f5260405f205f915090505481565b60055481565b806004819055507f89c2ce6623e541436db69e615af4bd1df6866d974a60da619ce0b4e874afc77e816040516105b49190610a4b565b60405180910390a150565b60045481565b6105cd610952565b565b5f808411610612576040517f08c379a000000000000000000000000000000000000000000000000000000000815260040161060990610d1d565b60405180910390fd5b61061a610952565b61062384610865565b90508060025f8473ffffffffffffffffffffffffffffffffffffffff1673ffffffffffffffffffffffffffffffffffffffff1681526020019081526020015f205410156106a5576040517f08c379a000000000000000000000000000000000000000000000000000000000815260040161069c90610e47565b60405180910390fd5b8060025f8473ffffffffffffffffffffffffffffffffffffffff1673ffffffffffffffffffffffffffffffffffffffff1681526020019081526020015f205f8282546106f19190610e65565b925050819055508060015f8282546107099190610e65565b925050819055508360035410610736578360035f82825461072a9190610e65565b9250508190555061073e565b5f6003819055505b5f8054906101000a900473ffffffffffffffffffffffffffffffffffffffff1673ffffffffffffffffffffffffffffffffffffffff1663a9059cbb84866040518363ffffffff1660e01b8152600401610798929190610e98565b6020604051808303815f875af11580156107b4573d5f803e3d5ffd5b505050506040513d601f19601f820116820180604052508101906107d89190610ef4565b6107e0575f80fd5b8173ffffffffffffffffffffffffffffffffffffffff168373ffffffffffffffffffffffffffffffffffffffff163373ffffffffffffffffffffffffffffffffffffffff167ffbde797d201c681b91056529119e0b02407c7bb96a4a2c75c01fc9667232c8db8785604051610856929190610dd6565b60405180910390a49392505050565b5f808203610875575f9050610899565b600654670de0b6b3a76400008361088c9190610c25565b6108969190610c93565b90505b919050565b8060075f6101000a81548173ffffffffffffffffffffffffffffffffffffffff021916908373ffffffffffffffffffffffffffffffffffffffff1602179055507f2c1c11af44aa5608f1dca38c00275c30ea091e02417d36e70e9a1538689c433d8160405161090d9190610afc565b60405180910390a150565b5f81111561094757428110610933575f600581905550610946565b804261093f9190610e65565b6005819055505b5b61094f610952565b50565b5f600554426109619190610e65565b90505f81036109705750610a31565b426005819055505f6301e1338090505f81670de0b6b3a7640000846004546109989190610c25565b6109a29190610c25565b6109ac9190610c93565b90505f670de0b6b3a7640000612710836006546109c99190610c25565b6109d39190610c93565b6109dd9190610c93565b9050806006546109ed9190610da3565b6006819055507ff3486c8be7415104f077b000d812e60c482b6824642b7673b3f73d6faeca29a6600654604051610a249190610a4b565b60405180910390a1505050505b565b5f819050919050565b610a4581610a33565b82525050565b5f602082019050610a5e5f830184610a3c565b92915050565b5f80fd5b610a7181610a33565b8114610a7b575f80fd5b50565b5f81359050610a8c81610a68565b92915050565b5f60208284031215610aa757610aa6610a64565b5b5f610ab484828501610a7e565b91505092915050565b5f73ffffffffffffffffffffffffffffffffffffffff82169050919050565b5f610ae682610abd565b9050919050565b610af681610adc565b82525050565b5f602082019050610b0f5f830184610aed565b92915050565b610b1e81610adc565b8114610b28575f80fd5b50565b5f81359050610b3981610b15565b92915050565b5f8060408385031215610b5557610b54610a64565b5b5f610b6285828601610a7e565b9250506020610b7385828601610b2b565b9150509250929050565b5f60208284031215610b9257610b91610a64565b5b5f610b9f84828501610b2b565b91505092915050565b5f805f60608486031215610bbf57610bbe610a64565b5b5f610bcc86828701610a7e565b9350506020610bdd86828701610b2b565b9250506040610bee86828701610b2b565b9150509250925092565b7f4e487b71000000000000000000000000000000000000000000000000000000005f52601160045260245ffd5b5f610c2f82610a33565b9150610c3a83610a33565b9250828202610c4881610a33565b91508282048414831517610c5f57610c5e610bf8565b5b5092915050565b7f4e487b71000000000000000000000000000000000000000000000000000000005f52601260045260245ffd5b5f610c9d82610a33565b9150610ca883610a33565b925082610cb857610cb7610c66565b5b828204905092915050565b5f82825260208201905092915050565b7f5a45524f5f4153534554530000000000000000000000000000000000000000005f82015250565b5f610d07600b83610cc3565b9150610d1282610cd3565b602082019050919050565b5f6020820190508181035f830152610d3481610cfb565b9050919050565b7f5a45524f5f5348415245530000000000000000000000000000000000000000005f82015250565b5f610d6f600b83610cc3565b9150610d7a82610d3b565b602082019050919050565b5f6020820190508181035f830152610d9c81610d63565b9050919050565b5f610dad82610a33565b9150610db883610a33565b9250828201905080821115610dd057610dcf610bf8565b5b92915050565b5f604082019050610de95f830185610a3c565b610df66020830184610a3c565b9392505050565b7f494e53554646494349454e545f534841524553000000000000000000000000005f82015250565b5f610e31601383610cc3565b9150610e3c82610dfd565b602082019050919050565b5f6020820190508181035f830152610e5e81610e25565b9050919050565b5f610e6f82610a33565b9150610e7a83610a33565b9250828203905081811115610e9257610e91610bf8565b5b92915050565b5f604082019050610eab5f830185610aed565b610eb86020830184610a3c565b9392505050565b5f8115159050919050565b610ed381610ebf565b8114610edd575f80fd5b50565b5f81519050610eee81610eca565b92915050565b5f60208284031215610f0957610f08610a64565b5b5f610f1684828501610ee0565b9150509291505056fea2646970667358221220f7270b25b7b52467f33bb688522e3e548186bfe48cb0a3e3742458efbe1ec31864736f6c63430008190033","linkReferences":{}},"methodIdentifiers":{"accrueInterest()":"a6afed95","accrueWithTime(uint256)":"f067e19d","annualRateBps()":"987f23dd","asset()":"38d52e0f","balanceOf(address)":"70a08231","convertToAssets(uint256)":"07a2d13a","convertToShares(uint256)":"c6e6f592","deposit(uint256,address)":"6e553f65","exchangeRate()":"3ba0b9a9","lastAccrual()":"7b3baab4","manager()":"481c6a75","setAnnualRateBps(uint256)":"915231e9","setManager(address)":"d0ebdbe7","totalAssets()":"01e1d114","totalSupply()":"18160ddd","withdraw(uint256,address,address)":"b460af94"},"id":32}