{"abi":[{"type":"function","name":"delegateBorrowingPower","inputs":[{"name":"lender","type":"address","internalType":"address"},{"name":"borrower","type":"address","internalType":"address"},{"name":"assets","type":"uint256","internalType":"uint256"}],"outputs":[],"stateMutability":"nonpayable"},{"type":"function","name":"delegatedAssets","inputs":[{"name":"lender","type":"address","internalType":"address"},{"name":"borrower","type":"address","internalType":"address"}],"outputs":[{"name":"","type":"uint256","internalType":"uint256"}],"stateMutability":"view"},{"type":"function","name":"revokeDelegation","inputs":[{"name":"lender","type":"address","internalType":"address"},{"name":"borrower","type":"address","internalType":"address"}],"outputs":[],"stateMutability":"nonpayable"},{"type":"event","name":"Delegated","inputs":[{"name":"lender","type":"address","indexed":true,"internalType":"address"},{"name":"borrower","type":"address","indexed":true,"internalType":"address"},{"name":"assets","type":"uint256","indexed":false,"internalType":"uint256"}],"anonymous":false},{"type":"event","name":"Revoked","inputs":[{"name":"lender","type":"address","indexed":true,"internalType":"address"},{"name":"borrower","type":"address","indexed":true,"internalType":"address"}],"anonymous":false}],"bytecode":{"object":"0x6080604052348015600e575f80fd5b5061062d8061001c5f395ff3fe608060405234801561000f575f80fd5b506004361061003f575f3560e01c8063785f99c3146100435780637d7e619b1461005f578063c72987cc1461008f575b5f80fd5b61005d60048036038101906100589190610496565b6100ab565b005b61007960048036038101906100749190610496565b61022a565b60405161008691906104ec565b60405180910390f35b6100a960048036038101906100a4919061052f565b6102ab565b005b5f73ffffffffffffffffffffffffffffffffffffffff168273ffffffffffffffffffffffffffffffffffffffff161415801561011357505f73ffffffffffffffffffffffffffffffffffffffff168173ffffffffffffffffffffffffffffffffffffffff1614155b610152576040517f08c379a0000000000000000000000000000000000000000000000000000000008152600401610149906105d9565b60405180910390fd5b5f808373ffffffffffffffffffffffffffffffffffffffff1673ffffffffffffffffffffffffffffffffffffffff1681526020019081526020015f205f8273ffffffffffffffffffffffffffffffffffffffff1673ffffffffffffffffffffffffffffffffffffffff1681526020019081526020015f205f90558073ffffffffffffffffffffffffffffffffffffffff168273ffffffffffffffffffffffffffffffffffffffff167fc336937d058cc0fc95b7491390ffcf122da8cf400512d9714a76f644aa8955b760405160405180910390a35050565b5f805f8473ffffffffffffffffffffffffffffffffffffffff1673ffffffffffffffffffffffffffffffffffffffff1681526020019081526020015f205f8373ffffffffffffffffffffffffffffffffffffffff1673ffffffffffffffffffffffffffffffffffffffff1681526020019081526020015f2054905092915050565b5f73ffffffffffffffffffffffffffffffffffffffff168373ffffffffffffffffffffffffffffffffffffffff161415801561031357505f73ffffffffffffffffffffffffffffffffffffffff168273ffffffffffffffffffffffffffffffffffffffff1614155b610352576040517f08c379a0000000000000000000000000000000000000000000000000000000008152600401610349906105d9565b60405180910390fd5b805f808573ffffffffffffffffffffffffffffffffffffffff1673ffffffffffffffffffffffffffffffffffffffff1681526020019081526020015f205f8473ffffffffffffffffffffffffffffffffffffffff1673ffffffffffffffffffffffffffffffffffffffff1681526020019081526020015f20819055508173ffffffffffffffffffffffffffffffffffffffff168373ffffffffffffffffffffffffffffffffffffffff167fe5541a6b6103d4fa7e021ed54fad39c66f27a76bd13d374cf6240ae6bd0bb72b8360405161042b91906104ec565b60405180910390a3505050565b5f80fd5b5f73ffffffffffffffffffffffffffffffffffffffff82169050919050565b5f6104658261043c565b9050919050565b6104758161045b565b811461047f575f80fd5b50565b5f813590506104908161046c565b92915050565b5f80604083850312156104ac576104ab610438565b5b5f6104b985828601610482565b92505060206104ca85828601610482565b9150509250929050565b5f819050919050565b6104e6816104d4565b82525050565b5f6020820190506104ff5f8301846104dd565b92915050565b61050e816104d4565b8114610518575f80fd5b50565b5f8135905061052981610505565b92915050565b5f805f6060848603121561054657610545610438565b5b5f61055386828701610482565b935050602061056486828701610482565b92505060406105758682870161051b565b9150509250925092565b5f82825260208201905092915050565b7f5a45524f5f4144445245535300000000000000000000000000000000000000005f82015250565b5f6105c3600c8361057f565b91506105ce8261058f565b602082019050919050565b5f6020820190508181035f8301526105f0816105b7565b905091905056fea2646970667358221220d8789012811260d359d0e6b148af1117cbcecab9e463f05fbbce25c735c20ff064736f6c63430008190033","linkReferences":{}},"methodIdentifiers":{"delegateBorrowingPower(address,address,uint256)":"c72987cc","delegatedAssets(address,address)":"7d7e619b","revokeDelegation(address,address)":"785f99c3"},"id":33}