{"abi":[{"type":"function","name":"delegateBorrowingPower","inputs":[{"name":"lender","type":"address","internalType":"address"},{"name":"borrower","type":"address","internalType":"address"},{"name":"assets","type":"uint256","internalType":"uint256"}],"outputs":[],"stateMutability":"nonpayable"},{"type":"function","name":"delegatedAssets","inputs":[{"name":"lender","type":"address","internalType":"address"},{"name":"borrower","type":"address","internalType":"address"}],"outputs":[{"name":"","type":"uint256","internalType":"uint256"}],"stateMutability":"view"},{"type":"function","name":"revokeDelegation","inputs":[{"name":"lender","type":"address","internalType":"address"},{"name":"borrower","type":"address","internalType":"address"}],"outputs":[],"stateMutability":"nonpayable"},{"type":"event","name":"Delegated","inputs":[{"name":"lender","type":"address","indexed":true,"internalType":"address"},{"name":"borrower","type":"address","indexed":true,"internalType":"address"},{"name":"assets","type":"uint256","indexed":false,"internalType":"uint256"}],"anonymous":false},{"type":"event","name":"Revoked","inputs":[{"name":"lender","type":"address","indexed":true,"internalType":"address"},{"name":"borrower","type":"address","indexed":true,"internalType":"address"}],"anonymous":false}],"bytecode":{"object":"0x608060405234801561001057600080fd5b506102e5806100206000396000f3fe608060405234801561001057600080fd5b50600436106100415760003560e01c8063785f99c3146100465780637d7e619b1461005b578063c72987cc146100a4575b600080fd5b610059610054366004610240565b6100b7565b005b610092610069366004610240565b6001600160a01b0391821660009081526020818152604080832093909416825291909152205490565b60405190815260200160405180910390f35b6100596100b2366004610273565b61016a565b6001600160a01b038216158015906100d757506001600160a01b03811615155b6101175760405162461bcd60e51b815260206004820152600c60248201526b5a45524f5f4144445245535360a01b60448201526064015b60405180910390fd5b6001600160a01b0380831660008181526020818152604080832094861680845294909152808220829055517fc336937d058cc0fc95b7491390ffcf122da8cf400512d9714a76f644aa8955b79190a35050565b6001600160a01b0383161580159061018a57506001600160a01b03821615155b6101c55760405162461bcd60e51b815260206004820152600c60248201526b5a45524f5f4144445245535360a01b604482015260640161010e565b6001600160a01b038381166000818152602081815260408083209487168084529482529182902085905590518481527fe5541a6b6103d4fa7e021ed54fad39c66f27a76bd13d374cf6240ae6bd0bb72b910160405180910390a3505050565b80356001600160a01b038116811461023b57600080fd5b919050565b6000806040838503121561025357600080fd5b61025c83610224565b915061026a60208401610224565b90509250929050565b60008060006060848603121561028857600080fd5b61029184610224565b925061029f60208501610224565b915060408401359050925092509256fea2646970667358221220ab4637543266257144567448d786c1aa1dc9fe88e958437bcd36b25bfba66f3364736f6c63430008180033","linkReferences":{}},"methodIdentifiers":{"delegateBorrowingPower(address,address,uint256)":"c72987cc","delegatedAssets(address,address)":"7d7e619b","revokeDelegation(address,address)":"785f99c3"},"id":1}