{"abi":[{"type":"constructor","inputs":[{"name":"_name","type":"string","internalType":"string"},{"name":"_symbol","type":"string","internalType":"string"},{"name":"_decimals","type":"uint8","internalType":"uint8"}],"stateMutability":"nonpayable"},{"type":"function","name":"allowance","inputs":[{"name":"","type":"address","internalType":"address"},{"name":"","type":"address","internalType":"address"}],"outputs":[{"name":"","type":"uint256","internalType":"uint256"}],"stateMutability":"view"},{"type":"function","name":"approve","inputs":[{"name":"spender","type":"address","internalType":"address"},{"name":"value","type":"uint256","internalType":"uint256"}],"outputs":[{"name":"","type":"bool","internalType":"bool"}],"stateMutability":"nonpayable"},{"type":"function","name":"balanceOf","inputs":[{"name":"","type":"address","internalType":"address"}],"outputs":[{"name":"","type":"uint256","internalType":"uint256"}],"stateMutability":"view"},{"type":"function","name":"burn","inputs":[{"name":"from","type":"address","internalType":"address"},{"name":"value","type":"uint256","internalType":"uint256"}],"outputs":[],"stateMutability":"nonpayable"},{"type":"function","name":"decimals","inputs":[],"outputs":[{"name":"","type":"uint8","internalType":"uint8"}],"stateMutability":"view"},{"type":"function","name":"mint","inputs":[{"name":"to","type":"address","internalType":"address"},{"name":"value","type":"uint256","internalType":"uint256"}],"outputs":[],"stateMutability":"nonpayable"},{"type":"function","name":"name","inputs":[],"outputs":[{"name":"","type":"string","internalType":"string"}],"stateMutability":"view"},{"type":"function","name":"symbol","inputs":[],"outputs":[{"name":"","type":"string","internalType":"string"}],"stateMutability":"view"},{"type":"function","name":"totalSupply","inputs":[],"outputs":[{"name":"","type":"uint256","internalType":"uint256"}],"stateMutability":"view"},{"type":"function","name":"transfer","inputs":[{"name":"to","type":"address","internalType":"address"},{"name":"value","type":"uint256","internalType":"uint256"}],"outputs":[{"name":"","type":"bool","internalType":"bool"}],"stateMutability":"nonpayable"},{"type":"function","name":"transferFrom","inputs":[{"name":"from","type":"address","internalType":"address"},{"name":"to","type":"address","internalType":"address"},{"name":"value","type":"uint256","internalType":"uint256"}],"outputs":[{"name":"","type":"bool","internalType":"bool"}],"stateMutability":"nonpayable"},{"type":"event","name":"Approval","inputs":[{"name":"owner","type":"address","indexed":true,"internalType":"address"},{"name":"spender","type":"address","indexed":true,"internalType":"address"},{"name":"value","type":"uint256","indexed":false,"internalType":"uint256"}],"anonymous":false},{"type":"event","name":"Transfer","inputs":[{"name":"from","type":"address","indexed":true,"internalType":"address"},{"name":"to","type":"address","indexed":true,"internalType":"address"},{"name":"value","type":"uint256","indexed":false,"internalType":"uint256"}],"anonymous":false}],"bytecode":{"object":"0x60a060405234801561000f575f80fd5b506040516113e13803806113e1833981810160405281019061003191906101e9565b825f908161003f919061047e565b50816001908161004f919061047e565b508060ff1660808160ff168152505050505061054d565b5f604051905090565b5f80fd5b5f80fd5b5f80fd5b5f80fd5b5f601f19601f8301169050919050565b7f4e487b71000000000000000000000000000000000000000000000000000000005f52604160045260245ffd5b6100c58261007f565b810181811067ffffffffffffffff821117156100e4576100e361008f565b5b80604052505050565b5f6100f6610066565b905061010282826100bc565b919050565b5f67ffffffffffffffff8211156101215761012061008f565b5b61012a8261007f565b9050602081019050919050565b8281835e5f83830152505050565b5f61015761015284610107565b6100ed565b9050828152602081018484840111156101735761017261007b565b5b61017e848285610137565b509392505050565b5f82601f83011261019a57610199610077565b5b81516101aa848260208601610145565b91505092915050565b5f60ff82169050919050565b6101c8816101b3565b81146101d2575f80fd5b50565b5f815190506101e3816101bf565b92915050565b5f805f60608486031215610200576101ff61006f565b5b5f84015167ffffffffffffffff81111561021d5761021c610073565b5b61022986828701610186565b935050602084015167ffffffffffffffff81111561024a57610249610073565b5b61025686828701610186565b9250506040610267868287016101d5565b9150509250925092565b5f81519050919050565b7f4e487b71000000000000000000000000000000000000000000000000000000005f52602260045260245ffd5b5f60028204905060018216806102bf57607f821691505b6020821081036102d2576102d161027b565b5b50919050565b5f819050815f5260205f209050919050565b5f6020601f8301049050919050565b5f82821b905092915050565b5f600883026103347fffffffffffffffffffffffffffffffffffffffffffffffffffffffffffffffff826102f9565b61033e86836102f9565b95508019841693508086168417925050509392505050565b5f819050919050565b5f819050919050565b5f61038261037d61037884610356565b61035f565b610356565b9050919050565b5f819050919050565b61039b83610368565b6103af6103a782610389565b848454610305565b825550505050565b5f90565b6103c36103b7565b6103ce818484610392565b505050565b5b818110156103f1576103e65f826103bb565b6001810190506103d4565b5050565b601f82111561043657610407816102d8565b610410846102ea565b8101602085101561041f578190505b61043361042b856102ea565b8301826103d3565b50505b505050565b5f82821c905092915050565b5f6104565f198460080261043b565b1980831691505092915050565b5f61046e8383610447565b9150826002028217905092915050565b61048782610271565b67ffffffffffffffff8111156104a05761049f61008f565b5b6104aa82546102a8565b6104b58282856103f5565b5f60209050601f8311600181146104e6575f84156104d4578287015190505b6104de8582610463565b865550610545565b601f1984166104f4866102d8565b5f5b8281101561051b578489015182556001820191506020850194506020810190506104f6565b868310156105385784890151610534601f891682610447565b8355505b6001600288020188555050505b505050505050565b608051610e7c6105655f395f6105520152610e7c5ff3fe608060405234801561000f575f80fd5b50600436106100a7575f3560e01c806340c10f191161006f57806340c10f191461016557806370a082311461018157806395d89b41146101b15780639dc29fac146101cf578063a9059cbb146101eb578063dd62ed3e1461021b576100a7565b806306fdde03146100ab578063095ea7b3146100c957806318160ddd146100f957806323b872dd14610117578063313ce56714610147575b5f80fd5b6100b361024b565b6040516100c09190610a4f565b60405180910390f35b6100e360048036038101906100de9190610b00565b6102d6565b6040516100f09190610b58565b60405180910390f35b6101016103c3565b60405161010e9190610b80565b60405180910390f35b610131600480360381019061012c9190610b99565b6103c9565b60405161013e9190610b58565b60405180910390f35b61014f610550565b60405161015c9190610c04565b60405180910390f35b61017f600480360381019061017a9190610b00565b610574565b005b61019b60048036038101906101969190610c1d565b610648565b6040516101a89190610b80565b60405180910390f35b6101b961065d565b6040516101c69190610a4f565b60405180910390f35b6101e960048036038101906101e49190610b00565b6106e9565b005b61020560048036038101906102009190610b00565b61082b565b6040516102129190610b58565b60405180910390f35b61023560048036038101906102309190610c48565b610841565b6040516102429190610b80565b60405180910390f35b5f805461025790610cb3565b80601f016020809104026020016040519081016040528092919081815260200182805461028390610cb3565b80156102ce5780601f106102a5576101008083540402835291602001916102ce565b820191905f5260205f20905b8154815290600101906020018083116102b157829003601f168201915b505050505081565b5f8160045f3373ffffffffffffffffffffffffffffffffffffffff1673ffffffffffffffffffffffffffffffffffffffff1681526020019081526020015f205f8573ffffffffffffffffffffffffffffffffffffffff1673ffffffffffffffffffffffffffffffffffffffff1681526020019081526020015f20819055508273ffffffffffffffffffffffffffffffffffffffff163373ffffffffffffffffffffffffffffffffffffffff167f8c5be1e5ebec7d5bd14f71427d1e84f3dd0314c0f7b2291e5b200ac8c7c3b925846040516103b19190610b80565b60405180910390a36001905092915050565b60025481565b5f8060045f8673ffffffffffffffffffffffffffffffffffffffff1673ffffffffffffffffffffffffffffffffffffffff1681526020019081526020015f205f3373ffffffffffffffffffffffffffffffffffffffff1673ffffffffffffffffffffffffffffffffffffffff1681526020019081526020015f205490507fffffffffffffffffffffffffffffffffffffffffffffffffffffffffffffffff811461053957828110156104b0576040517f08c379a00000000000000000000000000000000000000000000000000000000081526004016104a790610d2d565b60405180910390fd5b82816104bc9190610d78565b60045f8773ffffffffffffffffffffffffffffffffffffffff1673ffffffffffffffffffffffffffffffffffffffff1681526020019081526020015f205f3373ffffffffffffffffffffffffffffffffffffffff1673ffffffffffffffffffffffffffffffffffffffff1681526020019081526020015f20819055505b610544858585610861565b60019150509392505050565b7f000000000000000000000000000000000000000000000000000000000000000081565b8060025f8282546105859190610dab565b925050819055508060035f8473ffffffffffffffffffffffffffffffffffffffff1673ffffffffffffffffffffffffffffffffffffffff1681526020019081526020015f205f8282546105d89190610dab565b925050819055508173ffffffffffffffffffffffffffffffffffffffff165f73ffffffffffffffffffffffffffffffffffffffff167fddf252ad1be2c89b69c2b068fc378daa952ba7f163c4a11628f55a4df523b3ef8360405161063c9190610b80565b60405180910390a35050565b6003602052805f5260405f205f915090505481565b6001805461066a90610cb3565b80601f016020809104026020016040519081016040528092919081815260200182805461069690610cb3565b80156106e15780601f106106b8576101008083540402835291602001916106e1565b820191905f5260205f20905b8154815290600101906020018083116106c457829003601f168201915b505050505081565b8060035f8473ffffffffffffffffffffffffffffffffffffffff1673ffffffffffffffffffffffffffffffffffffffff1681526020019081526020015f20541015610769576040517f08c379a000000000000000000000000000000000000000000000000000000000815260040161076090610e28565b60405180910390fd5b8060035f8473ffffffffffffffffffffffffffffffffffffffff1673ffffffffffffffffffffffffffffffffffffffff1681526020019081526020015f205f82825403925050819055508060025f82825403925050819055505f73ffffffffffffffffffffffffffffffffffffffff168273ffffffffffffffffffffffffffffffffffffffff167fddf252ad1be2c89b69c2b068fc378daa952ba7f163c4a11628f55a4df523b3ef8360405161081f9190610b80565b60405180910390a35050565b5f610837338484610861565b6001905092915050565b6004602052815f5260405f20602052805f5260405f205f91509150505481565b8060035f8573ffffffffffffffffffffffffffffffffffffffff1673ffffffffffffffffffffffffffffffffffffffff1681526020019081526020015f205410156108e1576040517f08c379a00000000000000000000000000000000000000000000000000000000081526004016108d890610e28565b60405180910390fd5b8060035f8573ffffffffffffffffffffffffffffffffffffffff1673ffffffffffffffffffffffffffffffffffffffff1681526020019081526020015f205f82825403925050819055508060035f8473ffffffffffffffffffffffffffffffffffffffff1673ffffffffffffffffffffffffffffffffffffffff1681526020019081526020015f205f82825401925050819055508173ffffffffffffffffffffffffffffffffffffffff168373ffffffffffffffffffffffffffffffffffffffff167fddf252ad1be2c89b69c2b068fc378daa952ba7f163c4a11628f55a4df523b3ef836040516109d29190610b80565b60405180910390a3505050565b5f81519050919050565b5f82825260208201905092915050565b8281835e5f83830152505050565b5f601f19601f8301169050919050565b5f610a21826109df565b610a2b81856109e9565b9350610a3b8185602086016109f9565b610a4481610a07565b840191505092915050565b5f6020820190508181035f830152610a678184610a17565b905092915050565b5f80fd5b5f73ffffffffffffffffffffffffffffffffffffffff82169050919050565b5f610a9c82610a73565b9050919050565b610aac81610a92565b8114610ab6575f80fd5b50565b5f81359050610ac781610aa3565b92915050565b5f819050919050565b610adf81610acd565b8114610ae9575f80fd5b50565b5f81359050610afa81610ad6565b92915050565b5f8060408385031215610b1657610b15610a6f565b5b5f610b2385828601610ab9565b9250506020610b3485828601610aec565b9150509250929050565b5f8115159050919050565b610b5281610b3e565b82525050565b5f602082019050610b6b5f830184610b49565b92915050565b610b7a81610acd565b82525050565b5f602082019050610b935f830184610b71565b92915050565b5f805f60608486031215610bb057610baf610a6f565b5b5f610bbd86828701610ab9565b9350506020610bce86828701610ab9565b9250506040610bdf86828701610aec565b9150509250925092565b5f60ff82169050919050565b610bfe81610be9565b82525050565b5f602082019050610c175f830184610bf5565b92915050565b5f60208284031215610c3257610c31610a6f565b5b5f610c3f84828501610ab9565b91505092915050565b5f8060408385031215610c5e57610c5d610a6f565b5b5f610c6b85828601610ab9565b9250506020610c7c85828601610ab9565b9150509250929050565b7f4e487b71000000000000000000000000000000000000000000000000000000005f52602260045260245ffd5b5f6002820490506001821680610cca57607f821691505b602082108103610cdd57610cdc610c86565b5b50919050565b7f494e53554646494349454e545f414c4c4f57414e4345000000000000000000005f82015250565b5f610d176016836109e9565b9150610d2282610ce3565b602082019050919050565b5f6020820190508181035f830152610d4481610d0b565b9050919050565b7f4e487b71000000000000000000000000000000000000000000000000000000005f52601160045260245ffd5b5f610d8282610acd565b9150610d8d83610acd565b9250828203905081811115610da557610da4610d4b565b5b92915050565b5f610db582610acd565b9150610dc083610acd565b9250828201905080821115610dd857610dd7610d4b565b5b92915050565b7f494e53554646494349454e545f42414c414e43450000000000000000000000005f82015250565b5f610e126014836109e9565b9150610e1d82610dde565b602082019050919050565b5f6020820190508181035f830152610e3f81610e06565b905091905056fea26469706673582212200f8fe893710e3e53208db50096333cd4726767f2f2033f161140990694705db364736f6c63430008190033","linkReferences":{}},"methodIdentifiers":{"allowance(address,address)":"dd62ed3e","approve(address,uint256)":"095ea7b3","balanceOf(address)":"70a08231","burn(address,uint256)":"9dc29fac","decimals()":"313ce567","mint(address,uint256)":"40c10f19","name()":"06fdde03","symbol()":"95d89b41","totalSupply()":"18160ddd","transfer(address,uint256)":"a9059cbb","transferFrom(address,address,uint256)":"23b872dd"},"id":28}